{
	"contracts/BlockchainMessanger.sol": {
		"BlockchainMessanger": {
			"abi": [
				{
					"inputs": [],
					"stateMutability": "nonpayable",
					"type": "constructor"
				},
				{
					"inputs": [],
					"name": "counter",
					"outputs": [
						{
							"internalType": "uint256",
							"name": "",
							"type": "uint256"
						}
					],
					"stateMutability": "view",
					"type": "function"
				},
				{
					"inputs": [],
					"name": "ownerAddress",
					"outputs": [
						{
							"internalType": "address",
							"name": "",
							"type": "address"
						}
					],
					"stateMutability": "view",
					"type": "function"
				},
				{
					"inputs": [],
					"name": "testString",
					"outputs": [
						{
							"internalType": "string",
							"name": "",
							"type": "string"
						}
					],
					"stateMutability": "view",
					"type": "function"
				},
				{
					"inputs": [
						{
							"internalType": "string",
							"name": "_myString",
							"type": "string"
						}
					],
					"name": "updatingStringFunc",
					"outputs": [],
					"stateMutability": "nonpayable",
					"type": "function"
				}
			],
			"devdoc": {
				"kind": "dev",
				"methods": {},
				"version": 1
			},
			"evm": {
				"assembly": "    /* \"contracts/BlockchainMessanger.sol\":57:537  contract BlockchainMessanger {... */\n  mstore(0x40, 0x80)\n    /* \"contracts/BlockchainMessanger.sol\":227:355  constructor() {... */\n  callvalue\n  dup1\n  iszero\n  tag_1\n  jumpi\n  0x00\n  dup1\n  revert\ntag_1:\n  pop\n    /* \"contracts/BlockchainMessanger.sol\":266:276  msg.sender */\n  caller\n    /* \"contracts/BlockchainMessanger.sol\":251:263  ownerAddress */\n  0x00\n  dup1\n    /* \"contracts/BlockchainMessanger.sol\":251:276  ownerAddress = msg.sender */\n  0x0100\n  exp\n  dup2\n  sload\n  dup2\n  0xffffffffffffffffffffffffffffffffffffffff\n  mul\n  not\n  and\n  swap1\n  dup4\n  0xffffffffffffffffffffffffffffffffffffffff\n  and\n  mul\n  or\n  swap1\n  sstore\n  pop\n    /* \"contracts/BlockchainMessanger.sol\":57:537  contract BlockchainMessanger {... */\n  dataSize(sub_0)\n  dup1\n  dataOffset(sub_0)\n  0x00\n  codecopy\n  0x00\n  return\nstop\n\nsub_0: assembly {\n        /* \"contracts/BlockchainMessanger.sol\":57:537  contract BlockchainMessanger {... */\n      mstore(0x40, 0x80)\n      callvalue\n      dup1\n      iszero\n      tag_1\n      jumpi\n      0x00\n      dup1\n      revert\n    tag_1:\n      pop\n      jumpi(tag_2, lt(calldatasize, 0x04))\n      shr(0xe0, calldataload(0x00))\n      dup1\n      0x61bc221a\n      eq\n      tag_3\n      jumpi\n      dup1\n      0x8f84aa09\n      eq\n      tag_4\n      jumpi\n      dup1\n      0xb7306a6d\n      eq\n      tag_5\n      jumpi\n      dup1\n      0xfb8f0f59\n      eq\n      tag_6\n      jumpi\n    tag_2:\n      0x00\n      dup1\n      revert\n        /* \"contracts/BlockchainMessanger.sol\":125:147  uint256 public counter */\n    tag_3:\n      tag_7\n      tag_8\n      jump\t// in\n    tag_7:\n      mload(0x40)\n      tag_9\n      swap2\n      swap1\n      tag_10\n      jump\t// in\n    tag_9:\n      mload(0x40)\n      dup1\n      swap2\n      sub\n      swap1\n      return\n        /* \"contracts/BlockchainMessanger.sol\":92:119  address public ownerAddress */\n    tag_4:\n      tag_11\n      tag_12\n      jump\t// in\n    tag_11:\n      mload(0x40)\n      tag_13\n      swap2\n      swap1\n      tag_14\n      jump\t// in\n    tag_13:\n      mload(0x40)\n      dup1\n      swap2\n      sub\n      swap1\n      return\n        /* \"contracts/BlockchainMessanger.sol\":361:535  function updatingStringFunc(string memory _myString) public {... */\n    tag_5:\n      tag_15\n      0x04\n      dup1\n      calldatasize\n      sub\n      dup2\n      add\n      swap1\n      tag_16\n      swap2\n      swap1\n      tag_17\n      jump\t// in\n    tag_16:\n      tag_18\n      jump\t// in\n    tag_15:\n      stop\n        /* \"contracts/BlockchainMessanger.sol\":153:177  string public testString */\n    tag_6:\n      tag_19\n      tag_20\n      jump\t// in\n    tag_19:\n      mload(0x40)\n      tag_21\n      swap2\n      swap1\n      tag_22\n      jump\t// in\n    tag_21:\n      mload(0x40)\n      dup1\n      swap2\n      sub\n      swap1\n      return\n        /* \"contracts/BlockchainMessanger.sol\":125:147  uint256 public counter */\n    tag_8:\n      sload(0x01)\n      dup2\n      jump\t// out\n        /* \"contracts/BlockchainMessanger.sol\":92:119  address public ownerAddress */\n    tag_12:\n      0x00\n      dup1\n      sload\n      swap1\n      0x0100\n      exp\n      swap1\n      div\n      0xffffffffffffffffffffffffffffffffffffffff\n      and\n      dup2\n      jump\t// out\n        /* \"contracts/BlockchainMessanger.sol\":361:535  function updatingStringFunc(string memory _myString) public {... */\n    tag_18:\n        /* \"contracts/BlockchainMessanger.sol\":448:460  ownerAddress */\n      0x00\n      dup1\n      sload\n      swap1\n      0x0100\n      exp\n      swap1\n      div\n      0xffffffffffffffffffffffffffffffffffffffff\n      and\n        /* \"contracts/BlockchainMessanger.sol\":434:460  msg.sender == ownerAddress */\n      0xffffffffffffffffffffffffffffffffffffffff\n      and\n        /* \"contracts/BlockchainMessanger.sol\":434:444  msg.sender */\n      caller\n        /* \"contracts/BlockchainMessanger.sol\":434:460  msg.sender == ownerAddress */\n      0xffffffffffffffffffffffffffffffffffffffff\n      and\n      sub\n        /* \"contracts/BlockchainMessanger.sol\":431:529  if(msg.sender == ownerAddress){... */\n      tag_24\n      jumpi\n        /* \"contracts/BlockchainMessanger.sol\":486:495  _myString */\n      dup1\n        /* \"contracts/BlockchainMessanger.sol\":475:485  testString */\n      0x02\n        /* \"contracts/BlockchainMessanger.sol\":475:495  testString=_myString */\n      swap1\n      dup2\n      tag_25\n      swap2\n      swap1\n      tag_26\n      jump\t// in\n    tag_25:\n      pop\n        /* \"contracts/BlockchainMessanger.sol\":509:516  counter */\n      0x01\n      0x00\n        /* \"contracts/BlockchainMessanger.sol\":509:518  counter++ */\n      dup2\n      sload\n      dup1\n      swap3\n      swap2\n      swap1\n      tag_27\n      swap1\n      tag_28\n      jump\t// in\n    tag_27:\n      swap2\n      swap1\n      pop\n      sstore\n      pop\n        /* \"contracts/BlockchainMessanger.sol\":431:529  if(msg.sender == ownerAddress){... */\n    tag_24:\n        /* \"contracts/BlockchainMessanger.sol\":361:535  function updatingStringFunc(string memory _myString) public {... */\n      pop\n      jump\t// out\n        /* \"contracts/BlockchainMessanger.sol\":153:177  string public testString */\n    tag_20:\n      0x02\n      dup1\n      sload\n      tag_29\n      swap1\n      tag_30\n      jump\t// in\n    tag_29:\n      dup1\n      0x1f\n      add\n      0x20\n      dup1\n      swap2\n      div\n      mul\n      0x20\n      add\n      mload(0x40)\n      swap1\n      dup2\n      add\n      0x40\n      mstore\n      dup1\n      swap3\n      swap2\n      swap1\n      dup2\n      dup2\n      mstore\n      0x20\n      add\n      dup3\n      dup1\n      sload\n      tag_31\n      swap1\n      tag_30\n      jump\t// in\n    tag_31:\n      dup1\n      iszero\n      tag_32\n      jumpi\n      dup1\n      0x1f\n      lt\n      tag_33\n      jumpi\n      0x0100\n      dup1\n      dup4\n      sload\n      div\n      mul\n      dup4\n      mstore\n      swap2\n      0x20\n      add\n      swap2\n      jump(tag_32)\n    tag_33:\n      dup3\n      add\n      swap2\n      swap1\n      0x00\n      mstore\n      keccak256(0x00, 0x20)\n      swap1\n    tag_34:\n      dup2\n      sload\n      dup2\n      mstore\n      swap1\n      0x01\n      add\n      swap1\n      0x20\n      add\n      dup1\n      dup4\n      gt\n      tag_34\n      jumpi\n      dup3\n      swap1\n      sub\n      0x1f\n      and\n      dup3\n      add\n      swap2\n    tag_32:\n      pop\n      pop\n      pop\n      pop\n      pop\n      dup2\n      jump\t// out\n        /* \"#utility.yul\":7:84   */\n    tag_35:\n        /* \"#utility.yul\":44:51   */\n      0x00\n        /* \"#utility.yul\":73:78   */\n      dup2\n        /* \"#utility.yul\":62:78   */\n      swap1\n      pop\n        /* \"#utility.yul\":7:84   */\n      swap2\n      swap1\n      pop\n      jump\t// out\n        /* \"#utility.yul\":90:208   */\n    tag_36:\n        /* \"#utility.yul\":177:201   */\n      tag_77\n        /* \"#utility.yul\":195:200   */\n      dup2\n        /* \"#utility.yul\":177:201   */\n      tag_35\n      jump\t// in\n    tag_77:\n        /* \"#utility.yul\":172:175   */\n      dup3\n        /* \"#utility.yul\":165:202   */\n      mstore\n        /* \"#utility.yul\":90:208   */\n      pop\n      pop\n      jump\t// out\n        /* \"#utility.yul\":214:436   */\n    tag_10:\n        /* \"#utility.yul\":307:311   */\n      0x00\n        /* \"#utility.yul\":345:347   */\n      0x20\n        /* \"#utility.yul\":334:343   */\n      dup3\n        /* \"#utility.yul\":330:348   */\n      add\n        /* \"#utility.yul\":322:348   */\n      swap1\n      pop\n        /* \"#utility.yul\":358:429   */\n      tag_79\n        /* \"#utility.yul\":426:427   */\n      0x00\n        /* \"#utility.yul\":415:424   */\n      dup4\n        /* \"#utility.yul\":411:428   */\n      add\n        /* \"#utility.yul\":402:408   */\n      dup5\n        /* \"#utility.yul\":358:429   */\n      tag_36\n      jump\t// in\n    tag_79:\n        /* \"#utility.yul\":214:436   */\n      swap3\n      swap2\n      pop\n      pop\n      jump\t// out\n        /* \"#utility.yul\":442:568   */\n    tag_37:\n        /* \"#utility.yul\":479:486   */\n      0x00\n        /* \"#utility.yul\":519:561   */\n      0xffffffffffffffffffffffffffffffffffffffff\n        /* \"#utility.yul\":512:517   */\n      dup3\n        /* \"#utility.yul\":508:562   */\n      and\n        /* \"#utility.yul\":497:562   */\n      swap1\n      pop\n        /* \"#utility.yul\":442:568   */\n      swap2\n      swap1\n      pop\n      jump\t// out\n        /* \"#utility.yul\":574:670   */\n    tag_38:\n        /* \"#utility.yul\":611:618   */\n      0x00\n        /* \"#utility.yul\":640:664   */\n      tag_82\n        /* \"#utility.yul\":658:663   */\n      dup3\n        /* \"#utility.yul\":640:664   */\n      tag_37\n      jump\t// in\n    tag_82:\n        /* \"#utility.yul\":629:664   */\n      swap1\n      pop\n        /* \"#utility.yul\":574:670   */\n      swap2\n      swap1\n      pop\n      jump\t// out\n        /* \"#utility.yul\":676:794   */\n    tag_39:\n        /* \"#utility.yul\":763:787   */\n      tag_84\n        /* \"#utility.yul\":781:786   */\n      dup2\n        /* \"#utility.yul\":763:787   */\n      tag_38\n      jump\t// in\n    tag_84:\n        /* \"#utility.yul\":758:761   */\n      dup3\n        /* \"#utility.yul\":751:788   */\n      mstore\n        /* \"#utility.yul\":676:794   */\n      pop\n      pop\n      jump\t// out\n        /* \"#utility.yul\":800:1022   */\n    tag_14:\n        /* \"#utility.yul\":893:897   */\n      0x00\n        /* \"#utility.yul\":931:933   */\n      0x20\n        /* \"#utility.yul\":920:929   */\n      dup3\n        /* \"#utility.yul\":916:934   */\n      add\n        /* \"#utility.yul\":908:934   */\n      swap1\n      pop\n        /* \"#utility.yul\":944:1015   */\n      tag_86\n        /* \"#utility.yul\":1012:1013   */\n      0x00\n        /* \"#utility.yul\":1001:1010   */\n      dup4\n        /* \"#utility.yul\":997:1014   */\n      add\n        /* \"#utility.yul\":988:994   */\n      dup5\n        /* \"#utility.yul\":944:1015   */\n      tag_39\n      jump\t// in\n    tag_86:\n        /* \"#utility.yul\":800:1022   */\n      swap3\n      swap2\n      pop\n      pop\n      jump\t// out\n        /* \"#utility.yul\":1028:1103   */\n    tag_40:\n        /* \"#utility.yul\":1061:1067   */\n      0x00\n        /* \"#utility.yul\":1094:1096   */\n      0x40\n        /* \"#utility.yul\":1088:1097   */\n      mload\n        /* \"#utility.yul\":1078:1097   */\n      swap1\n      pop\n        /* \"#utility.yul\":1028:1103   */\n      swap1\n      jump\t// out\n        /* \"#utility.yul\":1109:1226   */\n    tag_41:\n        /* \"#utility.yul\":1218:1219   */\n      0x00\n        /* \"#utility.yul\":1215:1216   */\n      dup1\n        /* \"#utility.yul\":1208:1220   */\n      revert\n        /* \"#utility.yul\":1232:1349   */\n    tag_42:\n        /* \"#utility.yul\":1341:1342   */\n      0x00\n        /* \"#utility.yul\":1338:1339   */\n      dup1\n        /* \"#utility.yul\":1331:1343   */\n      revert\n        /* \"#utility.yul\":1355:1472   */\n    tag_43:\n        /* \"#utility.yul\":1464:1465   */\n      0x00\n        /* \"#utility.yul\":1461:1462   */\n      dup1\n        /* \"#utility.yul\":1454:1466   */\n      revert\n        /* \"#utility.yul\":1478:1595   */\n    tag_44:\n        /* \"#utility.yul\":1587:1588   */\n      0x00\n        /* \"#utility.yul\":1584:1585   */\n      dup1\n        /* \"#utility.yul\":1577:1589   */\n      revert\n        /* \"#utility.yul\":1601:1703   */\n    tag_45:\n        /* \"#utility.yul\":1642:1648   */\n      0x00\n        /* \"#utility.yul\":1693:1695   */\n      0x1f\n        /* \"#utility.yul\":1689:1696   */\n      not\n        /* \"#utility.yul\":1684:1686   */\n      0x1f\n        /* \"#utility.yul\":1677:1682   */\n      dup4\n        /* \"#utility.yul\":1673:1687   */\n      add\n        /* \"#utility.yul\":1669:1697   */\n      and\n        /* \"#utility.yul\":1659:1697   */\n      swap1\n      pop\n        /* \"#utility.yul\":1601:1703   */\n      swap2\n      swap1\n      pop\n      jump\t// out\n        /* \"#utility.yul\":1709:1889   */\n    tag_46:\n        /* \"#utility.yul\":1757:1834   */\n      0x4e487b7100000000000000000000000000000000000000000000000000000000\n        /* \"#utility.yul\":1754:1755   */\n      0x00\n        /* \"#utility.yul\":1747:1835   */\n      mstore\n        /* \"#utility.yul\":1854:1858   */\n      0x41\n        /* \"#utility.yul\":1851:1852   */\n      0x04\n        /* \"#utility.yul\":1844:1859   */\n      mstore\n        /* \"#utility.yul\":1878:1882   */\n      0x24\n        /* \"#utility.yul\":1875:1876   */\n      0x00\n        /* \"#utility.yul\":1868:1883   */\n      revert\n        /* \"#utility.yul\":1895:2176   */\n    tag_47:\n        /* \"#utility.yul\":1978:2005   */\n      tag_95\n        /* \"#utility.yul\":2000:2004   */\n      dup3\n        /* \"#utility.yul\":1978:2005   */\n      tag_45\n      jump\t// in\n    tag_95:\n        /* \"#utility.yul\":1970:1976   */\n      dup2\n        /* \"#utility.yul\":1966:2006   */\n      add\n        /* \"#utility.yul\":2108:2114   */\n      dup2\n        /* \"#utility.yul\":2096:2106   */\n      dup2\n        /* \"#utility.yul\":2093:2115   */\n      lt\n        /* \"#utility.yul\":2072:2090   */\n      0xffffffffffffffff\n        /* \"#utility.yul\":2060:2070   */\n      dup3\n        /* \"#utility.yul\":2057:2091   */\n      gt\n        /* \"#utility.yul\":2054:2116   */\n      or\n        /* \"#utility.yul\":2051:2139   */\n      iszero\n      tag_96\n      jumpi\n        /* \"#utility.yul\":2119:2137   */\n      tag_97\n      tag_46\n      jump\t// in\n    tag_97:\n        /* \"#utility.yul\":2051:2139   */\n    tag_96:\n        /* \"#utility.yul\":2159:2169   */\n      dup1\n        /* \"#utility.yul\":2155:2157   */\n      0x40\n        /* \"#utility.yul\":2148:2170   */\n      mstore\n        /* \"#utility.yul\":1938:2176   */\n      pop\n        /* \"#utility.yul\":1895:2176   */\n      pop\n      pop\n      jump\t// out\n        /* \"#utility.yul\":2182:2311   */\n    tag_48:\n        /* \"#utility.yul\":2216:2222   */\n      0x00\n        /* \"#utility.yul\":2243:2263   */\n      tag_99\n      tag_40\n      jump\t// in\n    tag_99:\n        /* \"#utility.yul\":2233:2263   */\n      swap1\n      pop\n        /* \"#utility.yul\":2272:2305   */\n      tag_100\n        /* \"#utility.yul\":2300:2304   */\n      dup3\n        /* \"#utility.yul\":2292:2298   */\n      dup3\n        /* \"#utility.yul\":2272:2305   */\n      tag_47\n      jump\t// in\n    tag_100:\n        /* \"#utility.yul\":2182:2311   */\n      swap2\n      swap1\n      pop\n      jump\t// out\n        /* \"#utility.yul\":2317:2625   */\n    tag_49:\n        /* \"#utility.yul\":2379:2383   */\n      0x00\n        /* \"#utility.yul\":2469:2487   */\n      0xffffffffffffffff\n        /* \"#utility.yul\":2461:2467   */\n      dup3\n        /* \"#utility.yul\":2458:2488   */\n      gt\n        /* \"#utility.yul\":2455:2511   */\n      iszero\n      tag_102\n      jumpi\n        /* \"#utility.yul\":2491:2509   */\n      tag_103\n      tag_46\n      jump\t// in\n    tag_103:\n        /* \"#utility.yul\":2455:2511   */\n    tag_102:\n        /* \"#utility.yul\":2529:2558   */\n      tag_104\n        /* \"#utility.yul\":2551:2557   */\n      dup3\n        /* \"#utility.yul\":2529:2558   */\n      tag_45\n      jump\t// in\n    tag_104:\n        /* \"#utility.yul\":2521:2558   */\n      swap1\n      pop\n        /* \"#utility.yul\":2613:2617   */\n      0x20\n        /* \"#utility.yul\":2607:2611   */\n      dup2\n        /* \"#utility.yul\":2603:2618   */\n      add\n        /* \"#utility.yul\":2595:2618   */\n      swap1\n      pop\n        /* \"#utility.yul\":2317:2625   */\n      swap2\n      swap1\n      pop\n      jump\t// out\n        /* \"#utility.yul\":2631:2779   */\n    tag_50:\n        /* \"#utility.yul\":2729:2735   */\n      dup3\n        /* \"#utility.yul\":2724:2727   */\n      dup2\n        /* \"#utility.yul\":2719:2722   */\n      dup4\n        /* \"#utility.yul\":2706:2736   */\n      calldatacopy\n        /* \"#utility.yul\":2770:2771   */\n      0x00\n        /* \"#utility.yul\":2761:2767   */\n      dup4\n        /* \"#utility.yul\":2756:2759   */\n      dup4\n        /* \"#utility.yul\":2752:2768   */\n      add\n        /* \"#utility.yul\":2745:2772   */\n      mstore\n        /* \"#utility.yul\":2631:2779   */\n      pop\n      pop\n      pop\n      jump\t// out\n        /* \"#utility.yul\":2785:3210   */\n    tag_51:\n        /* \"#utility.yul\":2863:2868   */\n      0x00\n        /* \"#utility.yul\":2888:2954   */\n      tag_107\n        /* \"#utility.yul\":2904:2953   */\n      tag_108\n        /* \"#utility.yul\":2946:2952   */\n      dup5\n        /* \"#utility.yul\":2904:2953   */\n      tag_49\n      jump\t// in\n    tag_108:\n        /* \"#utility.yul\":2888:2954   */\n      tag_48\n      jump\t// in\n    tag_107:\n        /* \"#utility.yul\":2879:2954   */\n      swap1\n      pop\n        /* \"#utility.yul\":2977:2983   */\n      dup3\n        /* \"#utility.yul\":2970:2975   */\n      dup2\n        /* \"#utility.yul\":2963:2984   */\n      mstore\n        /* \"#utility.yul\":3015:3019   */\n      0x20\n        /* \"#utility.yul\":3008:3013   */\n      dup2\n        /* \"#utility.yul\":3004:3020   */\n      add\n        /* \"#utility.yul\":3053:3056   */\n      dup5\n        /* \"#utility.yul\":3044:3050   */\n      dup5\n        /* \"#utility.yul\":3039:3042   */\n      dup5\n        /* \"#utility.yul\":3035:3051   */\n      add\n        /* \"#utility.yul\":3032:3057   */\n      gt\n        /* \"#utility.yul\":3029:3141   */\n      iszero\n      tag_109\n      jumpi\n        /* \"#utility.yul\":3060:3139   */\n      tag_110\n      tag_44\n      jump\t// in\n    tag_110:\n        /* \"#utility.yul\":3029:3141   */\n    tag_109:\n        /* \"#utility.yul\":3150:3204   */\n      tag_111\n        /* \"#utility.yul\":3197:3203   */\n      dup5\n        /* \"#utility.yul\":3192:3195   */\n      dup3\n        /* \"#utility.yul\":3187:3190   */\n      dup6\n        /* \"#utility.yul\":3150:3204   */\n      tag_50\n      jump\t// in\n    tag_111:\n        /* \"#utility.yul\":2869:3210   */\n      pop\n        /* \"#utility.yul\":2785:3210   */\n      swap4\n      swap3\n      pop\n      pop\n      pop\n      jump\t// out\n        /* \"#utility.yul\":3230:3570   */\n    tag_52:\n        /* \"#utility.yul\":3286:3291   */\n      0x00\n        /* \"#utility.yul\":3335:3338   */\n      dup3\n        /* \"#utility.yul\":3328:3332   */\n      0x1f\n        /* \"#utility.yul\":3320:3326   */\n      dup4\n        /* \"#utility.yul\":3316:3333   */\n      add\n        /* \"#utility.yul\":3312:3339   */\n      slt\n        /* \"#utility.yul\":3302:3424   */\n      tag_113\n      jumpi\n        /* \"#utility.yul\":3343:3422   */\n      tag_114\n      tag_43\n      jump\t// in\n    tag_114:\n        /* \"#utility.yul\":3302:3424   */\n    tag_113:\n        /* \"#utility.yul\":3460:3466   */\n      dup2\n        /* \"#utility.yul\":3447:3467   */\n      calldataload\n        /* \"#utility.yul\":3485:3564   */\n      tag_115\n        /* \"#utility.yul\":3560:3563   */\n      dup5\n        /* \"#utility.yul\":3552:3558   */\n      dup3\n        /* \"#utility.yul\":3545:3549   */\n      0x20\n        /* \"#utility.yul\":3537:3543   */\n      dup7\n        /* \"#utility.yul\":3533:3550   */\n      add\n        /* \"#utility.yul\":3485:3564   */\n      tag_51\n      jump\t// in\n    tag_115:\n        /* \"#utility.yul\":3476:3564   */\n      swap2\n      pop\n        /* \"#utility.yul\":3292:3570   */\n      pop\n        /* \"#utility.yul\":3230:3570   */\n      swap3\n      swap2\n      pop\n      pop\n      jump\t// out\n        /* \"#utility.yul\":3576:4085   */\n    tag_17:\n        /* \"#utility.yul\":3645:3651   */\n      0x00\n        /* \"#utility.yul\":3694:3696   */\n      0x20\n        /* \"#utility.yul\":3682:3691   */\n      dup3\n        /* \"#utility.yul\":3673:3680   */\n      dup5\n        /* \"#utility.yul\":3669:3692   */\n      sub\n        /* \"#utility.yul\":3665:3697   */\n      slt\n        /* \"#utility.yul\":3662:3781   */\n      iszero\n      tag_117\n      jumpi\n        /* \"#utility.yul\":3700:3779   */\n      tag_118\n      tag_41\n      jump\t// in\n    tag_118:\n        /* \"#utility.yul\":3662:3781   */\n    tag_117:\n        /* \"#utility.yul\":3848:3849   */\n      0x00\n        /* \"#utility.yul\":3837:3846   */\n      dup3\n        /* \"#utility.yul\":3833:3850   */\n      add\n        /* \"#utility.yul\":3820:3851   */\n      calldataload\n        /* \"#utility.yul\":3878:3896   */\n      0xffffffffffffffff\n        /* \"#utility.yul\":3870:3876   */\n      dup2\n        /* \"#utility.yul\":3867:3897   */\n      gt\n        /* \"#utility.yul\":3864:3981   */\n      iszero\n      tag_119\n      jumpi\n        /* \"#utility.yul\":3900:3979   */\n      tag_120\n      tag_42\n      jump\t// in\n    tag_120:\n        /* \"#utility.yul\":3864:3981   */\n    tag_119:\n        /* \"#utility.yul\":4005:4068   */\n      tag_121\n        /* \"#utility.yul\":4060:4067   */\n      dup5\n        /* \"#utility.yul\":4051:4057   */\n      dup3\n        /* \"#utility.yul\":4040:4049   */\n      dup6\n        /* \"#utility.yul\":4036:4058   */\n      add\n        /* \"#utility.yul\":4005:4068   */\n      tag_52\n      jump\t// in\n    tag_121:\n        /* \"#utility.yul\":3995:4068   */\n      swap2\n      pop\n        /* \"#utility.yul\":3791:4078   */\n      pop\n        /* \"#utility.yul\":3576:4085   */\n      swap3\n      swap2\n      pop\n      pop\n      jump\t// out\n        /* \"#utility.yul\":4091:4190   */\n    tag_53:\n        /* \"#utility.yul\":4143:4149   */\n      0x00\n        /* \"#utility.yul\":4177:4182   */\n      dup2\n        /* \"#utility.yul\":4171:4183   */\n      mload\n        /* \"#utility.yul\":4161:4183   */\n      swap1\n      pop\n        /* \"#utility.yul\":4091:4190   */\n      swap2\n      swap1\n      pop\n      jump\t// out\n        /* \"#utility.yul\":4196:4365   */\n    tag_54:\n        /* \"#utility.yul\":4280:4291   */\n      0x00\n        /* \"#utility.yul\":4314:4320   */\n      dup3\n        /* \"#utility.yul\":4309:4312   */\n      dup3\n        /* \"#utility.yul\":4302:4321   */\n      mstore\n        /* \"#utility.yul\":4354:4358   */\n      0x20\n        /* \"#utility.yul\":4349:4352   */\n      dup3\n        /* \"#utility.yul\":4345:4359   */\n      add\n        /* \"#utility.yul\":4330:4359   */\n      swap1\n      pop\n        /* \"#utility.yul\":4196:4365   */\n      swap3\n      swap2\n      pop\n      pop\n      jump\t// out\n        /* \"#utility.yul\":4371:4510   */\n    tag_55:\n        /* \"#utility.yul\":4460:4466   */\n      dup3\n        /* \"#utility.yul\":4455:4458   */\n      dup2\n        /* \"#utility.yul\":4450:4453   */\n      dup4\n        /* \"#utility.yul\":4444:4467   */\n      mcopy\n        /* \"#utility.yul\":4501:4502   */\n      0x00\n        /* \"#utility.yul\":4492:4498   */\n      dup4\n        /* \"#utility.yul\":4487:4490   */\n      dup4\n        /* \"#utility.yul\":4483:4499   */\n      add\n        /* \"#utility.yul\":4476:4503   */\n      mstore\n        /* \"#utility.yul\":4371:4510   */\n      pop\n      pop\n      pop\n      jump\t// out\n        /* \"#utility.yul\":4516:4893   */\n    tag_56:\n        /* \"#utility.yul\":4604:4607   */\n      0x00\n        /* \"#utility.yul\":4632:4671   */\n      tag_126\n        /* \"#utility.yul\":4665:4670   */\n      dup3\n        /* \"#utility.yul\":4632:4671   */\n      tag_53\n      jump\t// in\n    tag_126:\n        /* \"#utility.yul\":4687:4758   */\n      tag_127\n        /* \"#utility.yul\":4751:4757   */\n      dup2\n        /* \"#utility.yul\":4746:4749   */\n      dup6\n        /* \"#utility.yul\":4687:4758   */\n      tag_54\n      jump\t// in\n    tag_127:\n        /* \"#utility.yul\":4680:4758   */\n      swap4\n      pop\n        /* \"#utility.yul\":4767:4832   */\n      tag_128\n        /* \"#utility.yul\":4825:4831   */\n      dup2\n        /* \"#utility.yul\":4820:4823   */\n      dup6\n        /* \"#utility.yul\":4813:4817   */\n      0x20\n        /* \"#utility.yul\":4806:4811   */\n      dup7\n        /* \"#utility.yul\":4802:4818   */\n      add\n        /* \"#utility.yul\":4767:4832   */\n      tag_55\n      jump\t// in\n    tag_128:\n        /* \"#utility.yul\":4857:4886   */\n      tag_129\n        /* \"#utility.yul\":4879:4885   */\n      dup2\n        /* \"#utility.yul\":4857:4886   */\n      tag_45\n      jump\t// in\n    tag_129:\n        /* \"#utility.yul\":4852:4855   */\n      dup5\n        /* \"#utility.yul\":4848:4887   */\n      add\n        /* \"#utility.yul\":4841:4887   */\n      swap2\n      pop\n        /* \"#utility.yul\":4608:4893   */\n      pop\n        /* \"#utility.yul\":4516:4893   */\n      swap3\n      swap2\n      pop\n      pop\n      jump\t// out\n        /* \"#utility.yul\":4899:5212   */\n    tag_22:\n        /* \"#utility.yul\":5012:5016   */\n      0x00\n        /* \"#utility.yul\":5050:5052   */\n      0x20\n        /* \"#utility.yul\":5039:5048   */\n      dup3\n        /* \"#utility.yul\":5035:5053   */\n      add\n        /* \"#utility.yul\":5027:5053   */\n      swap1\n      pop\n        /* \"#utility.yul\":5099:5108   */\n      dup2\n        /* \"#utility.yul\":5093:5097   */\n      dup2\n        /* \"#utility.yul\":5089:5109   */\n      sub\n        /* \"#utility.yul\":5085:5086   */\n      0x00\n        /* \"#utility.yul\":5074:5083   */\n      dup4\n        /* \"#utility.yul\":5070:5087   */\n      add\n        /* \"#utility.yul\":5063:5110   */\n      mstore\n        /* \"#utility.yul\":5127:5205   */\n      tag_131\n        /* \"#utility.yul\":5200:5204   */\n      dup2\n        /* \"#utility.yul\":5191:5197   */\n      dup5\n        /* \"#utility.yul\":5127:5205   */\n      tag_56\n      jump\t// in\n    tag_131:\n        /* \"#utility.yul\":5119:5205   */\n      swap1\n      pop\n        /* \"#utility.yul\":4899:5212   */\n      swap3\n      swap2\n      pop\n      pop\n      jump\t// out\n        /* \"#utility.yul\":5218:5398   */\n    tag_57:\n        /* \"#utility.yul\":5266:5343   */\n      0x4e487b7100000000000000000000000000000000000000000000000000000000\n        /* \"#utility.yul\":5263:5264   */\n      0x00\n        /* \"#utility.yul\":5256:5344   */\n      mstore\n        /* \"#utility.yul\":5363:5367   */\n      0x22\n        /* \"#utility.yul\":5360:5361   */\n      0x04\n        /* \"#utility.yul\":5353:5368   */\n      mstore\n        /* \"#utility.yul\":5387:5391   */\n      0x24\n        /* \"#utility.yul\":5384:5385   */\n      0x00\n        /* \"#utility.yul\":5377:5392   */\n      revert\n        /* \"#utility.yul\":5404:5724   */\n    tag_30:\n        /* \"#utility.yul\":5448:5454   */\n      0x00\n        /* \"#utility.yul\":5485:5486   */\n      0x02\n        /* \"#utility.yul\":5479:5483   */\n      dup3\n        /* \"#utility.yul\":5475:5487   */\n      div\n        /* \"#utility.yul\":5465:5487   */\n      swap1\n      pop\n        /* \"#utility.yul\":5532:5533   */\n      0x01\n        /* \"#utility.yul\":5526:5530   */\n      dup3\n        /* \"#utility.yul\":5522:5534   */\n      and\n        /* \"#utility.yul\":5553:5571   */\n      dup1\n        /* \"#utility.yul\":5543:5624   */\n      tag_134\n      jumpi\n        /* \"#utility.yul\":5609:5613   */\n      0x7f\n        /* \"#utility.yul\":5601:5607   */\n      dup3\n        /* \"#utility.yul\":5597:5614   */\n      and\n        /* \"#utility.yul\":5587:5614   */\n      swap2\n      pop\n        /* \"#utility.yul\":5543:5624   */\n    tag_134:\n        /* \"#utility.yul\":5671:5673   */\n      0x20\n        /* \"#utility.yul\":5663:5669   */\n      dup3\n        /* \"#utility.yul\":5660:5674   */\n      lt\n        /* \"#utility.yul\":5640:5658   */\n      dup2\n        /* \"#utility.yul\":5637:5675   */\n      sub\n        /* \"#utility.yul\":5634:5718   */\n      tag_135\n      jumpi\n        /* \"#utility.yul\":5690:5708   */\n      tag_136\n      tag_57\n      jump\t// in\n    tag_136:\n        /* \"#utility.yul\":5634:5718   */\n    tag_135:\n        /* \"#utility.yul\":5455:5724   */\n      pop\n        /* \"#utility.yul\":5404:5724   */\n      swap2\n      swap1\n      pop\n      jump\t// out\n        /* \"#utility.yul\":5730:5871   */\n    tag_58:\n        /* \"#utility.yul\":5779:5783   */\n      0x00\n        /* \"#utility.yul\":5802:5805   */\n      dup2\n        /* \"#utility.yul\":5794:5805   */\n      swap1\n      pop\n        /* \"#utility.yul\":5825:5828   */\n      dup2\n        /* \"#utility.yul\":5822:5823   */\n      0x00\n        /* \"#utility.yul\":5815:5829   */\n      mstore\n        /* \"#utility.yul\":5859:5863   */\n      0x20\n        /* \"#utility.yul\":5856:5857   */\n      0x00\n        /* \"#utility.yul\":5846:5864   */\n      keccak256\n        /* \"#utility.yul\":5838:5864   */\n      swap1\n      pop\n        /* \"#utility.yul\":5730:5871   */\n      swap2\n      swap1\n      pop\n      jump\t// out\n        /* \"#utility.yul\":5877:5970   */\n    tag_59:\n        /* \"#utility.yul\":5914:5920   */\n      0x00\n        /* \"#utility.yul\":5961:5963   */\n      0x20\n        /* \"#utility.yul\":5956:5958   */\n      0x1f\n        /* \"#utility.yul\":5949:5954   */\n      dup4\n        /* \"#utility.yul\":5945:5959   */\n      add\n        /* \"#utility.yul\":5941:5964   */\n      div\n        /* \"#utility.yul\":5931:5964   */\n      swap1\n      pop\n        /* \"#utility.yul\":5877:5970   */\n      swap2\n      swap1\n      pop\n      jump\t// out\n        /* \"#utility.yul\":5976:6083   */\n    tag_60:\n        /* \"#utility.yul\":6020:6028   */\n      0x00\n        /* \"#utility.yul\":6070:6075   */\n      dup3\n        /* \"#utility.yul\":6064:6068   */\n      dup3\n        /* \"#utility.yul\":6060:6076   */\n      shl\n        /* \"#utility.yul\":6039:6076   */\n      swap1\n      pop\n        /* \"#utility.yul\":5976:6083   */\n      swap3\n      swap2\n      pop\n      pop\n      jump\t// out\n        /* \"#utility.yul\":6089:6482   */\n    tag_61:\n        /* \"#utility.yul\":6158:6164   */\n      0x00\n        /* \"#utility.yul\":6208:6209   */\n      0x08\n        /* \"#utility.yul\":6196:6206   */\n      dup4\n        /* \"#utility.yul\":6192:6210   */\n      mul\n        /* \"#utility.yul\":6231:6328   */\n      tag_141\n        /* \"#utility.yul\":6261:6327   */\n      0xffffffffffffffffffffffffffffffffffffffffffffffffffffffffffffffff\n        /* \"#utility.yul\":6250:6259   */\n      dup3\n        /* \"#utility.yul\":6231:6328   */\n      tag_60\n      jump\t// in\n    tag_141:\n        /* \"#utility.yul\":6349:6388   */\n      tag_142\n        /* \"#utility.yul\":6379:6387   */\n      dup7\n        /* \"#utility.yul\":6368:6377   */\n      dup4\n        /* \"#utility.yul\":6349:6388   */\n      tag_60\n      jump\t// in\n    tag_142:\n        /* \"#utility.yul\":6337:6388   */\n      swap6\n      pop\n        /* \"#utility.yul\":6421:6425   */\n      dup1\n        /* \"#utility.yul\":6417:6426   */\n      not\n        /* \"#utility.yul\":6410:6415   */\n      dup5\n        /* \"#utility.yul\":6406:6427   */\n      and\n        /* \"#utility.yul\":6397:6427   */\n      swap4\n      pop\n        /* \"#utility.yul\":6470:6474   */\n      dup1\n        /* \"#utility.yul\":6460:6468   */\n      dup7\n        /* \"#utility.yul\":6456:6475   */\n      and\n        /* \"#utility.yul\":6449:6454   */\n      dup5\n        /* \"#utility.yul\":6446:6476   */\n      or\n        /* \"#utility.yul\":6436:6476   */\n      swap3\n      pop\n        /* \"#utility.yul\":6165:6482   */\n      pop\n      pop\n        /* \"#utility.yul\":6089:6482   */\n      swap4\n      swap3\n      pop\n      pop\n      pop\n      jump\t// out\n        /* \"#utility.yul\":6488:6548   */\n    tag_62:\n        /* \"#utility.yul\":6516:6519   */\n      0x00\n        /* \"#utility.yul\":6537:6542   */\n      dup2\n        /* \"#utility.yul\":6530:6542   */\n      swap1\n      pop\n        /* \"#utility.yul\":6488:6548   */\n      swap2\n      swap1\n      pop\n      jump\t// out\n        /* \"#utility.yul\":6554:6696   */\n    tag_63:\n        /* \"#utility.yul\":6604:6613   */\n      0x00\n        /* \"#utility.yul\":6637:6690   */\n      tag_145\n        /* \"#utility.yul\":6655:6689   */\n      tag_146\n        /* \"#utility.yul\":6664:6688   */\n      tag_147\n        /* \"#utility.yul\":6682:6687   */\n      dup5\n        /* \"#utility.yul\":6664:6688   */\n      tag_35\n      jump\t// in\n    tag_147:\n        /* \"#utility.yul\":6655:6689   */\n      tag_62\n      jump\t// in\n    tag_146:\n        /* \"#utility.yul\":6637:6690   */\n      tag_35\n      jump\t// in\n    tag_145:\n        /* \"#utility.yul\":6624:6690   */\n      swap1\n      pop\n        /* \"#utility.yul\":6554:6696   */\n      swap2\n      swap1\n      pop\n      jump\t// out\n        /* \"#utility.yul\":6702:6777   */\n    tag_64:\n        /* \"#utility.yul\":6745:6748   */\n      0x00\n        /* \"#utility.yul\":6766:6771   */\n      dup2\n        /* \"#utility.yul\":6759:6771   */\n      swap1\n      pop\n        /* \"#utility.yul\":6702:6777   */\n      swap2\n      swap1\n      pop\n      jump\t// out\n        /* \"#utility.yul\":6783:7052   */\n    tag_65:\n        /* \"#utility.yul\":6893:6932   */\n      tag_150\n        /* \"#utility.yul\":6924:6931   */\n      dup4\n        /* \"#utility.yul\":6893:6932   */\n      tag_63\n      jump\t// in\n    tag_150:\n        /* \"#utility.yul\":6954:7045   */\n      tag_151\n        /* \"#utility.yul\":7003:7044   */\n      tag_152\n        /* \"#utility.yul\":7027:7043   */\n      dup3\n        /* \"#utility.yul\":7003:7044   */\n      tag_64\n      jump\t// in\n    tag_152:\n        /* \"#utility.yul\":6995:7001   */\n      dup5\n        /* \"#utility.yul\":6988:6992   */\n      dup5\n        /* \"#utility.yul\":6982:6993   */\n      sload\n        /* \"#utility.yul\":6954:7045   */\n      tag_61\n      jump\t// in\n    tag_151:\n        /* \"#utility.yul\":6948:6952   */\n      dup3\n        /* \"#utility.yul\":6941:7046   */\n      sstore\n        /* \"#utility.yul\":6859:7052   */\n      pop\n        /* \"#utility.yul\":6783:7052   */\n      pop\n      pop\n      pop\n      jump\t// out\n        /* \"#utility.yul\":7058:7131   */\n    tag_66:\n        /* \"#utility.yul\":7103:7106   */\n      0x00\n        /* \"#utility.yul\":7058:7131   */\n      swap1\n      jump\t// out\n        /* \"#utility.yul\":7137:7326   */\n    tag_67:\n        /* \"#utility.yul\":7214:7246   */\n      tag_155\n      tag_66\n      jump\t// in\n    tag_155:\n        /* \"#utility.yul\":7255:7320   */\n      tag_156\n        /* \"#utility.yul\":7313:7319   */\n      dup2\n        /* \"#utility.yul\":7305:7311   */\n      dup5\n        /* \"#utility.yul\":7299:7303   */\n      dup5\n        /* \"#utility.yul\":7255:7320   */\n      tag_65\n      jump\t// in\n    tag_156:\n        /* \"#utility.yul\":7190:7326   */\n      pop\n        /* \"#utility.yul\":7137:7326   */\n      pop\n      pop\n      jump\t// out\n        /* \"#utility.yul\":7332:7518   */\n    tag_68:\n        /* \"#utility.yul\":7392:7512   */\n    tag_158:\n        /* \"#utility.yul\":7409:7412   */\n      dup2\n        /* \"#utility.yul\":7402:7407   */\n      dup2\n        /* \"#utility.yul\":7399:7413   */\n      lt\n        /* \"#utility.yul\":7392:7512   */\n      iszero\n      tag_160\n      jumpi\n        /* \"#utility.yul\":7463:7502   */\n      tag_161\n        /* \"#utility.yul\":7500:7501   */\n      0x00\n        /* \"#utility.yul\":7493:7498   */\n      dup3\n        /* \"#utility.yul\":7463:7502   */\n      tag_67\n      jump\t// in\n    tag_161:\n        /* \"#utility.yul\":7436:7437   */\n      0x01\n        /* \"#utility.yul\":7429:7434   */\n      dup2\n        /* \"#utility.yul\":7425:7438   */\n      add\n        /* \"#utility.yul\":7416:7438   */\n      swap1\n      pop\n        /* \"#utility.yul\":7392:7512   */\n      jump(tag_158)\n    tag_160:\n        /* \"#utility.yul\":7332:7518   */\n      pop\n      pop\n      jump\t// out\n        /* \"#utility.yul\":7524:8067   */\n    tag_69:\n        /* \"#utility.yul\":7625:7627   */\n      0x1f\n        /* \"#utility.yul\":7620:7623   */\n      dup3\n        /* \"#utility.yul\":7617:7628   */\n      gt\n        /* \"#utility.yul\":7614:8060   */\n      iszero\n      tag_163\n      jumpi\n        /* \"#utility.yul\":7659:7697   */\n      tag_164\n        /* \"#utility.yul\":7691:7696   */\n      dup2\n        /* \"#utility.yul\":7659:7697   */\n      tag_58\n      jump\t// in\n    tag_164:\n        /* \"#utility.yul\":7743:7772   */\n      tag_165\n        /* \"#utility.yul\":7761:7771   */\n      dup5\n        /* \"#utility.yul\":7743:7772   */\n      tag_59\n      jump\t// in\n    tag_165:\n        /* \"#utility.yul\":7733:7741   */\n      dup2\n        /* \"#utility.yul\":7729:7773   */\n      add\n        /* \"#utility.yul\":7926:7928   */\n      0x20\n        /* \"#utility.yul\":7914:7924   */\n      dup6\n        /* \"#utility.yul\":7911:7929   */\n      lt\n        /* \"#utility.yul\":7908:7957   */\n      iszero\n      tag_166\n      jumpi\n        /* \"#utility.yul\":7947:7955   */\n      dup2\n        /* \"#utility.yul\":7932:7955   */\n      swap1\n      pop\n        /* \"#utility.yul\":7908:7957   */\n    tag_166:\n        /* \"#utility.yul\":7970:8050   */\n      tag_167\n        /* \"#utility.yul\":8026:8048   */\n      tag_168\n        /* \"#utility.yul\":8044:8047   */\n      dup6\n        /* \"#utility.yul\":8026:8048   */\n      tag_59\n      jump\t// in\n    tag_168:\n        /* \"#utility.yul\":8016:8024   */\n      dup4\n        /* \"#utility.yul\":8012:8049   */\n      add\n        /* \"#utility.yul\":7999:8010   */\n      dup3\n        /* \"#utility.yul\":7970:8050   */\n      tag_68\n      jump\t// in\n    tag_167:\n        /* \"#utility.yul\":7629:8060   */\n      pop\n      pop\n        /* \"#utility.yul\":7614:8060   */\n    tag_163:\n        /* \"#utility.yul\":7524:8067   */\n      pop\n      pop\n      pop\n      jump\t// out\n        /* \"#utility.yul\":8073:8190   */\n    tag_70:\n        /* \"#utility.yul\":8127:8135   */\n      0x00\n        /* \"#utility.yul\":8177:8182   */\n      dup3\n        /* \"#utility.yul\":8171:8175   */\n      dup3\n        /* \"#utility.yul\":8167:8183   */\n      shr\n        /* \"#utility.yul\":8146:8183   */\n      swap1\n      pop\n        /* \"#utility.yul\":8073:8190   */\n      swap3\n      swap2\n      pop\n      pop\n      jump\t// out\n        /* \"#utility.yul\":8196:8365   */\n    tag_71:\n        /* \"#utility.yul\":8240:8246   */\n      0x00\n        /* \"#utility.yul\":8273:8324   */\n      tag_171\n        /* \"#utility.yul\":8321:8322   */\n      0x00\n        /* \"#utility.yul\":8317:8323   */\n      not\n        /* \"#utility.yul\":8309:8314   */\n      dup5\n        /* \"#utility.yul\":8306:8307   */\n      0x08\n        /* \"#utility.yul\":8302:8315   */\n      mul\n        /* \"#utility.yul\":8273:8324   */\n      tag_70\n      jump\t// in\n    tag_171:\n        /* \"#utility.yul\":8269:8325   */\n      not\n        /* \"#utility.yul\":8354:8358   */\n      dup1\n        /* \"#utility.yul\":8348:8352   */\n      dup4\n        /* \"#utility.yul\":8344:8359   */\n      and\n        /* \"#utility.yul\":8334:8359   */\n      swap2\n      pop\n        /* \"#utility.yul\":8247:8365   */\n      pop\n        /* \"#utility.yul\":8196:8365   */\n      swap3\n      swap2\n      pop\n      pop\n      jump\t// out\n        /* \"#utility.yul\":8370:8665   */\n    tag_72:\n        /* \"#utility.yul\":8446:8450   */\n      0x00\n        /* \"#utility.yul\":8592:8621   */\n      tag_173\n        /* \"#utility.yul\":8617:8620   */\n      dup4\n        /* \"#utility.yul\":8611:8615   */\n      dup4\n        /* \"#utility.yul\":8592:8621   */\n      tag_71\n      jump\t// in\n    tag_173:\n        /* \"#utility.yul\":8584:8621   */\n      swap2\n      pop\n        /* \"#utility.yul\":8654:8657   */\n      dup3\n        /* \"#utility.yul\":8651:8652   */\n      0x02\n        /* \"#utility.yul\":8647:8658   */\n      mul\n        /* \"#utility.yul\":8641:8645   */\n      dup3\n        /* \"#utility.yul\":8638:8659   */\n      or\n        /* \"#utility.yul\":8630:8659   */\n      swap1\n      pop\n        /* \"#utility.yul\":8370:8665   */\n      swap3\n      swap2\n      pop\n      pop\n      jump\t// out\n        /* \"#utility.yul\":8670:10065   */\n    tag_26:\n        /* \"#utility.yul\":8787:8824   */\n      tag_175\n        /* \"#utility.yul\":8820:8823   */\n      dup3\n        /* \"#utility.yul\":8787:8824   */\n      tag_53\n      jump\t// in\n    tag_175:\n        /* \"#utility.yul\":8889:8907   */\n      0xffffffffffffffff\n        /* \"#utility.yul\":8881:8887   */\n      dup2\n        /* \"#utility.yul\":8878:8908   */\n      gt\n        /* \"#utility.yul\":8875:8931   */\n      iszero\n      tag_176\n      jumpi\n        /* \"#utility.yul\":8911:8929   */\n      tag_177\n      tag_46\n      jump\t// in\n    tag_177:\n        /* \"#utility.yul\":8875:8931   */\n    tag_176:\n        /* \"#utility.yul\":8955:8993   */\n      tag_178\n        /* \"#utility.yul\":8987:8991   */\n      dup3\n        /* \"#utility.yul\":8981:8992   */\n      sload\n        /* \"#utility.yul\":8955:8993   */\n      tag_30\n      jump\t// in\n    tag_178:\n        /* \"#utility.yul\":9040:9107   */\n      tag_179\n        /* \"#utility.yul\":9100:9106   */\n      dup3\n        /* \"#utility.yul\":9092:9098   */\n      dup3\n        /* \"#utility.yul\":9086:9090   */\n      dup6\n        /* \"#utility.yul\":9040:9107   */\n      tag_69\n      jump\t// in\n    tag_179:\n        /* \"#utility.yul\":9134:9135   */\n      0x00\n        /* \"#utility.yul\":9158:9162   */\n      0x20\n        /* \"#utility.yul\":9145:9162   */\n      swap1\n      pop\n        /* \"#utility.yul\":9190:9192   */\n      0x1f\n        /* \"#utility.yul\":9182:9188   */\n      dup4\n        /* \"#utility.yul\":9179:9193   */\n      gt\n        /* \"#utility.yul\":9207:9208   */\n      0x01\n        /* \"#utility.yul\":9202:9820   */\n      dup2\n      eq\n      tag_181\n      jumpi\n        /* \"#utility.yul\":9864:9865   */\n      0x00\n        /* \"#utility.yul\":9881:9887   */\n      dup5\n        /* \"#utility.yul\":9878:9955   */\n      iszero\n      tag_182\n      jumpi\n        /* \"#utility.yul\":9930:9939   */\n      dup3\n        /* \"#utility.yul\":9925:9928   */\n      dup8\n        /* \"#utility.yul\":9921:9940   */\n      add\n        /* \"#utility.yul\":9915:9941   */\n      mload\n        /* \"#utility.yul\":9906:9941   */\n      swap1\n      pop\n        /* \"#utility.yul\":9878:9955   */\n    tag_182:\n        /* \"#utility.yul\":9981:10048   */\n      tag_183\n        /* \"#utility.yul\":10041:10047   */\n      dup6\n        /* \"#utility.yul\":10034:10039   */\n      dup3\n        /* \"#utility.yul\":9981:10048   */\n      tag_72\n      jump\t// in\n    tag_183:\n        /* \"#utility.yul\":9975:9979   */\n      dup7\n        /* \"#utility.yul\":9968:10049   */\n      sstore\n        /* \"#utility.yul\":9837:10059   */\n      pop\n        /* \"#utility.yul\":9172:10059   */\n      jump(tag_180)\n        /* \"#utility.yul\":9202:9820   */\n    tag_181:\n        /* \"#utility.yul\":9254:9258   */\n      0x1f\n        /* \"#utility.yul\":9250:9259   */\n      not\n        /* \"#utility.yul\":9242:9248   */\n      dup5\n        /* \"#utility.yul\":9238:9260   */\n      and\n        /* \"#utility.yul\":9288:9325   */\n      tag_184\n        /* \"#utility.yul\":9320:9324   */\n      dup7\n        /* \"#utility.yul\":9288:9325   */\n      tag_58\n      jump\t// in\n    tag_184:\n        /* \"#utility.yul\":9347:9348   */\n      0x00\n        /* \"#utility.yul\":9361:9569   */\n    tag_185:\n        /* \"#utility.yul\":9375:9382   */\n      dup3\n        /* \"#utility.yul\":9372:9373   */\n      dup2\n        /* \"#utility.yul\":9369:9383   */\n      lt\n        /* \"#utility.yul\":9361:9569   */\n      iszero\n      tag_187\n      jumpi\n        /* \"#utility.yul\":9454:9463   */\n      dup5\n        /* \"#utility.yul\":9449:9452   */\n      dup10\n        /* \"#utility.yul\":9445:9464   */\n      add\n        /* \"#utility.yul\":9439:9465   */\n      mload\n        /* \"#utility.yul\":9431:9437   */\n      dup3\n        /* \"#utility.yul\":9424:9466   */\n      sstore\n        /* \"#utility.yul\":9505:9506   */\n      0x01\n        /* \"#utility.yul\":9497:9503   */\n      dup3\n        /* \"#utility.yul\":9493:9507   */\n      add\n        /* \"#utility.yul\":9483:9507   */\n      swap2\n      pop\n        /* \"#utility.yul\":9552:9554   */\n      0x20\n        /* \"#utility.yul\":9541:9550   */\n      dup6\n        /* \"#utility.yul\":9537:9555   */\n      add\n        /* \"#utility.yul\":9524:9555   */\n      swap5\n      pop\n        /* \"#utility.yul\":9398:9402   */\n      0x20\n        /* \"#utility.yul\":9395:9396   */\n      dup2\n        /* \"#utility.yul\":9391:9403   */\n      add\n        /* \"#utility.yul\":9386:9403   */\n      swap1\n      pop\n        /* \"#utility.yul\":9361:9569   */\n      jump(tag_185)\n    tag_187:\n        /* \"#utility.yul\":9597:9603   */\n      dup7\n        /* \"#utility.yul\":9588:9595   */\n      dup4\n        /* \"#utility.yul\":9585:9604   */\n      lt\n        /* \"#utility.yul\":9582:9761   */\n      iszero\n      tag_188\n      jumpi\n        /* \"#utility.yul\":9655:9664   */\n      dup5\n        /* \"#utility.yul\":9650:9653   */\n      dup10\n        /* \"#utility.yul\":9646:9665   */\n      add\n        /* \"#utility.yul\":9640:9666   */\n      mload\n        /* \"#utility.yul\":9698:9746   */\n      tag_189\n        /* \"#utility.yul\":9740:9744   */\n      0x1f\n        /* \"#utility.yul\":9732:9738   */\n      dup10\n        /* \"#utility.yul\":9728:9745   */\n      and\n        /* \"#utility.yul\":9717:9726   */\n      dup3\n        /* \"#utility.yul\":9698:9746   */\n      tag_71\n      jump\t// in\n    tag_189:\n        /* \"#utility.yul\":9690:9696   */\n      dup4\n        /* \"#utility.yul\":9683:9747   */\n      sstore\n        /* \"#utility.yul\":9605:9761   */\n      pop\n        /* \"#utility.yul\":9582:9761   */\n    tag_188:\n        /* \"#utility.yul\":9807:9808   */\n      0x01\n        /* \"#utility.yul\":9803:9804   */\n      0x02\n        /* \"#utility.yul\":9795:9801   */\n      dup9\n        /* \"#utility.yul\":9791:9805   */\n      mul\n        /* \"#utility.yul\":9787:9809   */\n      add\n        /* \"#utility.yul\":9781:9785   */\n      dup9\n        /* \"#utility.yul\":9774:9810   */\n      sstore\n        /* \"#utility.yul\":9209:9820   */\n      pop\n      pop\n      pop\n        /* \"#utility.yul\":9172:10059   */\n    tag_180:\n      pop\n        /* \"#utility.yul\":8762:10065   */\n      pop\n      pop\n      pop\n        /* \"#utility.yul\":8670:10065   */\n      pop\n      pop\n      jump\t// out\n        /* \"#utility.yul\":10071:10251   */\n    tag_73:\n        /* \"#utility.yul\":10119:10196   */\n      0x4e487b7100000000000000000000000000000000000000000000000000000000\n        /* \"#utility.yul\":10116:10117   */\n      0x00\n        /* \"#utility.yul\":10109:10197   */\n      mstore\n        /* \"#utility.yul\":10216:10220   */\n      0x11\n        /* \"#utility.yul\":10213:10214   */\n      0x04\n        /* \"#utility.yul\":10206:10221   */\n      mstore\n        /* \"#utility.yul\":10240:10244   */\n      0x24\n        /* \"#utility.yul\":10237:10238   */\n      0x00\n        /* \"#utility.yul\":10230:10245   */\n      revert\n        /* \"#utility.yul\":10257:10490   */\n    tag_28:\n        /* \"#utility.yul\":10296:10299   */\n      0x00\n        /* \"#utility.yul\":10319:10343   */\n      tag_192\n        /* \"#utility.yul\":10337:10342   */\n      dup3\n        /* \"#utility.yul\":10319:10343   */\n      tag_35\n      jump\t// in\n    tag_192:\n        /* \"#utility.yul\":10310:10343   */\n      swap2\n      pop\n        /* \"#utility.yul\":10365:10431   */\n      0xffffffffffffffffffffffffffffffffffffffffffffffffffffffffffffffff\n        /* \"#utility.yul\":10358:10363   */\n      dup3\n        /* \"#utility.yul\":10355:10432   */\n      sub\n        /* \"#utility.yul\":10352:10455   */\n      tag_193\n      jumpi\n        /* \"#utility.yul\":10435:10453   */\n      tag_194\n      tag_73\n      jump\t// in\n    tag_194:\n        /* \"#utility.yul\":10352:10455   */\n    tag_193:\n        /* \"#utility.yul\":10482:10483   */\n      0x01\n        /* \"#utility.yul\":10475:10480   */\n      dup3\n        /* \"#utility.yul\":10471:10484   */\n      add\n        /* \"#utility.yul\":10464:10484   */\n      swap1\n      pop\n        /* \"#utility.yul\":10257:10490   */\n      swap2\n      swap1\n      pop\n      jump\t// out\n\n    auxdata: 0xa26469706673582212205b6ff64c4569cbcafe32204b761556c5a708039dd07debcf56ecd62b101b93a764736f6c634300081a0033\n}\n",
				"bytecode": {
					"linkReferences": {},
					"object": "6080604052348015600e575f80fd5b50335f806101000a81548173ffffffffffffffffffffffffffffffffffffffff021916908373ffffffffffffffffffffffffffffffffffffffff1602179055506108068061005b5f395ff3fe608060405234801561000f575f80fd5b506004361061004a575f3560e01c806361bc221a1461004e5780638f84aa091461006c578063b7306a6d1461008a578063fb8f0f59146100a6575b5f80fd5b6100566100c4565b604051610063919061020e565b60405180910390f35b6100746100ca565b6040516100819190610266565b60405180910390f35b6100a4600480360381019061009f91906103cc565b6100ed565b005b6100ae61016a565b6040516100bb9190610473565b60405180910390f35b60015481565b5f8054906101000a900473ffffffffffffffffffffffffffffffffffffffff1681565b5f8054906101000a900473ffffffffffffffffffffffffffffffffffffffff1673ffffffffffffffffffffffffffffffffffffffff163373ffffffffffffffffffffffffffffffffffffffff160361016757806002908161014e919061068d565b5060015f81548092919061016190610789565b91905055505b50565b60028054610177906104c0565b80601f01602080910402602001604051908101604052809291908181526020018280546101a3906104c0565b80156101ee5780601f106101c5576101008083540402835291602001916101ee565b820191905f5260205f20905b8154815290600101906020018083116101d157829003601f168201915b505050505081565b5f819050919050565b610208816101f6565b82525050565b5f6020820190506102215f8301846101ff565b92915050565b5f73ffffffffffffffffffffffffffffffffffffffff82169050919050565b5f61025082610227565b9050919050565b61026081610246565b82525050565b5f6020820190506102795f830184610257565b92915050565b5f604051905090565b5f80fd5b5f80fd5b5f80fd5b5f80fd5b5f601f19601f8301169050919050565b7f4e487b71000000000000000000000000000000000000000000000000000000005f52604160045260245ffd5b6102de82610298565b810181811067ffffffffffffffff821117156102fd576102fc6102a8565b5b80604052505050565b5f61030f61027f565b905061031b82826102d5565b919050565b5f67ffffffffffffffff82111561033a576103396102a8565b5b61034382610298565b9050602081019050919050565b828183375f83830152505050565b5f61037061036b84610320565b610306565b90508281526020810184848401111561038c5761038b610294565b5b610397848285610350565b509392505050565b5f82601f8301126103b3576103b2610290565b5b81356103c384826020860161035e565b91505092915050565b5f602082840312156103e1576103e0610288565b5b5f82013567ffffffffffffffff8111156103fe576103fd61028c565b5b61040a8482850161039f565b91505092915050565b5f81519050919050565b5f82825260208201905092915050565b8281835e5f83830152505050565b5f61044582610413565b61044f818561041d565b935061045f81856020860161042d565b61046881610298565b840191505092915050565b5f6020820190508181035f83015261048b818461043b565b905092915050565b7f4e487b71000000000000000000000000000000000000000000000000000000005f52602260045260245ffd5b5f60028204905060018216806104d757607f821691505b6020821081036104ea576104e9610493565b5b50919050565b5f819050815f5260205f209050919050565b5f6020601f8301049050919050565b5f82821b905092915050565b5f6008830261054c7fffffffffffffffffffffffffffffffffffffffffffffffffffffffffffffffff82610511565b6105568683610511565b95508019841693508086168417925050509392505050565b5f819050919050565b5f61059161058c610587846101f6565b61056e565b6101f6565b9050919050565b5f819050919050565b6105aa83610577565b6105be6105b682610598565b84845461051d565b825550505050565b5f90565b6105d26105c6565b6105dd8184846105a1565b505050565b5b81811015610600576105f55f826105ca565b6001810190506105e3565b5050565b601f82111561064557610616816104f0565b61061f84610502565b8101602085101561062e578190505b61064261063a85610502565b8301826105e2565b50505b505050565b5f82821c905092915050565b5f6106655f198460080261064a565b1980831691505092915050565b5f61067d8383610656565b9150826002028217905092915050565b61069682610413565b67ffffffffffffffff8111156106af576106ae6102a8565b5b6106b982546104c0565b6106c4828285610604565b5f60209050601f8311600181146106f5575f84156106e3578287015190505b6106ed8582610672565b865550610754565b601f198416610703866104f0565b5f5b8281101561072a57848901518255600182019150602085019450602081019050610705565b868310156107475784890151610743601f891682610656565b8355505b6001600288020188555050505b505050505050565b7f4e487b71000000000000000000000000000000000000000000000000000000005f52601160045260245ffd5b5f610793826101f6565b91507fffffffffffffffffffffffffffffffffffffffffffffffffffffffffffffffff82036107c5576107c461075c565b5b60018201905091905056fea26469706673582212205b6ff64c4569cbcafe32204b761556c5a708039dd07debcf56ecd62b101b93a764736f6c634300081a0033",
					"opcodes": "PUSH1 0x80 PUSH1 0x40 MSTORE CALLVALUE DUP1 ISZERO PUSH1 0xE JUMPI PUSH0 DUP1 REVERT JUMPDEST POP CALLER PUSH0 DUP1 PUSH2 0x100 EXP DUP2 SLOAD DUP2 PUSH20 0xFFFFFFFFFFFFFFFFFFFFFFFFFFFFFFFFFFFFFFFF MUL NOT AND SWAP1 DUP4 PUSH20 0xFFFFFFFFFFFFFFFFFFFFFFFFFFFFFFFFFFFFFFFF AND MUL OR SWAP1 SSTORE POP PUSH2 0x806 DUP1 PUSH2 0x5B PUSH0 CODECOPY PUSH0 RETURN INVALID PUSH1 0x80 PUSH1 0x40 MSTORE CALLVALUE DUP1 ISZERO PUSH2 0xF JUMPI PUSH0 DUP1 REVERT JUMPDEST POP PUSH1 0x4 CALLDATASIZE LT PUSH2 0x4A JUMPI PUSH0 CALLDATALOAD PUSH1 0xE0 SHR DUP1 PUSH4 0x61BC221A EQ PUSH2 0x4E JUMPI DUP1 PUSH4 0x8F84AA09 EQ PUSH2 0x6C JUMPI DUP1 PUSH4 0xB7306A6D EQ PUSH2 0x8A JUMPI DUP1 PUSH4 0xFB8F0F59 EQ PUSH2 0xA6 JUMPI JUMPDEST PUSH0 DUP1 REVERT JUMPDEST PUSH2 0x56 PUSH2 0xC4 JUMP JUMPDEST PUSH1 0x40 MLOAD PUSH2 0x63 SWAP2 SWAP1 PUSH2 0x20E JUMP JUMPDEST PUSH1 0x40 MLOAD DUP1 SWAP2 SUB SWAP1 RETURN JUMPDEST PUSH2 0x74 PUSH2 0xCA JUMP JUMPDEST PUSH1 0x40 MLOAD PUSH2 0x81 SWAP2 SWAP1 PUSH2 0x266 JUMP JUMPDEST PUSH1 0x40 MLOAD DUP1 SWAP2 SUB SWAP1 RETURN JUMPDEST PUSH2 0xA4 PUSH1 0x4 DUP1 CALLDATASIZE SUB DUP2 ADD SWAP1 PUSH2 0x9F SWAP2 SWAP1 PUSH2 0x3CC JUMP JUMPDEST PUSH2 0xED JUMP JUMPDEST STOP JUMPDEST PUSH2 0xAE PUSH2 0x16A JUMP JUMPDEST PUSH1 0x40 MLOAD PUSH2 0xBB SWAP2 SWAP1 PUSH2 0x473 JUMP JUMPDEST PUSH1 0x40 MLOAD DUP1 SWAP2 SUB SWAP1 RETURN JUMPDEST PUSH1 0x1 SLOAD DUP2 JUMP JUMPDEST PUSH0 DUP1 SLOAD SWAP1 PUSH2 0x100 EXP SWAP1 DIV PUSH20 0xFFFFFFFFFFFFFFFFFFFFFFFFFFFFFFFFFFFFFFFF AND DUP2 JUMP JUMPDEST PUSH0 DUP1 SLOAD SWAP1 PUSH2 0x100 EXP SWAP1 DIV PUSH20 0xFFFFFFFFFFFFFFFFFFFFFFFFFFFFFFFFFFFFFFFF AND PUSH20 0xFFFFFFFFFFFFFFFFFFFFFFFFFFFFFFFFFFFFFFFF AND CALLER PUSH20 0xFFFFFFFFFFFFFFFFFFFFFFFFFFFFFFFFFFFFFFFF AND SUB PUSH2 0x167 JUMPI DUP1 PUSH1 0x2 SWAP1 DUP2 PUSH2 0x14E SWAP2 SWAP1 PUSH2 0x68D JUMP JUMPDEST POP PUSH1 0x1 PUSH0 DUP2 SLOAD DUP1 SWAP3 SWAP2 SWAP1 PUSH2 0x161 SWAP1 PUSH2 0x789 JUMP JUMPDEST SWAP2 SWAP1 POP SSTORE POP JUMPDEST POP JUMP JUMPDEST PUSH1 0x2 DUP1 SLOAD PUSH2 0x177 SWAP1 PUSH2 0x4C0 JUMP JUMPDEST DUP1 PUSH1 0x1F ADD PUSH1 0x20 DUP1 SWAP2 DIV MUL PUSH1 0x20 ADD PUSH1 0x40 MLOAD SWAP1 DUP2 ADD PUSH1 0x40 MSTORE DUP1 SWAP3 SWAP2 SWAP1 DUP2 DUP2 MSTORE PUSH1 0x20 ADD DUP3 DUP1 SLOAD PUSH2 0x1A3 SWAP1 PUSH2 0x4C0 JUMP JUMPDEST DUP1 ISZERO PUSH2 0x1EE JUMPI DUP1 PUSH1 0x1F LT PUSH2 0x1C5 JUMPI PUSH2 0x100 DUP1 DUP4 SLOAD DIV MUL DUP4 MSTORE SWAP2 PUSH1 0x20 ADD SWAP2 PUSH2 0x1EE JUMP JUMPDEST DUP3 ADD SWAP2 SWAP1 PUSH0 MSTORE PUSH1 0x20 PUSH0 KECCAK256 SWAP1 JUMPDEST DUP2 SLOAD DUP2 MSTORE SWAP1 PUSH1 0x1 ADD SWAP1 PUSH1 0x20 ADD DUP1 DUP4 GT PUSH2 0x1D1 JUMPI DUP3 SWAP1 SUB PUSH1 0x1F AND DUP3 ADD SWAP2 JUMPDEST POP POP POP POP POP DUP2 JUMP JUMPDEST PUSH0 DUP2 SWAP1 POP SWAP2 SWAP1 POP JUMP JUMPDEST PUSH2 0x208 DUP2 PUSH2 0x1F6 JUMP JUMPDEST DUP3 MSTORE POP POP JUMP JUMPDEST PUSH0 PUSH1 0x20 DUP3 ADD SWAP1 POP PUSH2 0x221 PUSH0 DUP4 ADD DUP5 PUSH2 0x1FF JUMP JUMPDEST SWAP3 SWAP2 POP POP JUMP JUMPDEST PUSH0 PUSH20 0xFFFFFFFFFFFFFFFFFFFFFFFFFFFFFFFFFFFFFFFF DUP3 AND SWAP1 POP SWAP2 SWAP1 POP JUMP JUMPDEST PUSH0 PUSH2 0x250 DUP3 PUSH2 0x227 JUMP JUMPDEST SWAP1 POP SWAP2 SWAP1 POP JUMP JUMPDEST PUSH2 0x260 DUP2 PUSH2 0x246 JUMP JUMPDEST DUP3 MSTORE POP POP JUMP JUMPDEST PUSH0 PUSH1 0x20 DUP3 ADD SWAP1 POP PUSH2 0x279 PUSH0 DUP4 ADD DUP5 PUSH2 0x257 JUMP JUMPDEST SWAP3 SWAP2 POP POP JUMP JUMPDEST PUSH0 PUSH1 0x40 MLOAD SWAP1 POP SWAP1 JUMP JUMPDEST PUSH0 DUP1 REVERT JUMPDEST PUSH0 DUP1 REVERT JUMPDEST PUSH0 DUP1 REVERT JUMPDEST PUSH0 DUP1 REVERT JUMPDEST PUSH0 PUSH1 0x1F NOT PUSH1 0x1F DUP4 ADD AND SWAP1 POP SWAP2 SWAP1 POP JUMP JUMPDEST PUSH32 0x4E487B7100000000000000000000000000000000000000000000000000000000 PUSH0 MSTORE PUSH1 0x41 PUSH1 0x4 MSTORE PUSH1 0x24 PUSH0 REVERT JUMPDEST PUSH2 0x2DE DUP3 PUSH2 0x298 JUMP JUMPDEST DUP2 ADD DUP2 DUP2 LT PUSH8 0xFFFFFFFFFFFFFFFF DUP3 GT OR ISZERO PUSH2 0x2FD JUMPI PUSH2 0x2FC PUSH2 0x2A8 JUMP JUMPDEST JUMPDEST DUP1 PUSH1 0x40 MSTORE POP POP POP JUMP JUMPDEST PUSH0 PUSH2 0x30F PUSH2 0x27F JUMP JUMPDEST SWAP1 POP PUSH2 0x31B DUP3 DUP3 PUSH2 0x2D5 JUMP JUMPDEST SWAP2 SWAP1 POP JUMP JUMPDEST PUSH0 PUSH8 0xFFFFFFFFFFFFFFFF DUP3 GT ISZERO PUSH2 0x33A JUMPI PUSH2 0x339 PUSH2 0x2A8 JUMP JUMPDEST JUMPDEST PUSH2 0x343 DUP3 PUSH2 0x298 JUMP JUMPDEST SWAP1 POP PUSH1 0x20 DUP2 ADD SWAP1 POP SWAP2 SWAP1 POP JUMP JUMPDEST DUP3 DUP2 DUP4 CALLDATACOPY PUSH0 DUP4 DUP4 ADD MSTORE POP POP POP JUMP JUMPDEST PUSH0 PUSH2 0x370 PUSH2 0x36B DUP5 PUSH2 0x320 JUMP JUMPDEST PUSH2 0x306 JUMP JUMPDEST SWAP1 POP DUP3 DUP2 MSTORE PUSH1 0x20 DUP2 ADD DUP5 DUP5 DUP5 ADD GT ISZERO PUSH2 0x38C JUMPI PUSH2 0x38B PUSH2 0x294 JUMP JUMPDEST JUMPDEST PUSH2 0x397 DUP5 DUP3 DUP6 PUSH2 0x350 JUMP JUMPDEST POP SWAP4 SWAP3 POP POP POP JUMP JUMPDEST PUSH0 DUP3 PUSH1 0x1F DUP4 ADD SLT PUSH2 0x3B3 JUMPI PUSH2 0x3B2 PUSH2 0x290 JUMP JUMPDEST JUMPDEST DUP2 CALLDATALOAD PUSH2 0x3C3 DUP5 DUP3 PUSH1 0x20 DUP7 ADD PUSH2 0x35E JUMP JUMPDEST SWAP2 POP POP SWAP3 SWAP2 POP POP JUMP JUMPDEST PUSH0 PUSH1 0x20 DUP3 DUP5 SUB SLT ISZERO PUSH2 0x3E1 JUMPI PUSH2 0x3E0 PUSH2 0x288 JUMP JUMPDEST JUMPDEST PUSH0 DUP3 ADD CALLDATALOAD PUSH8 0xFFFFFFFFFFFFFFFF DUP2 GT ISZERO PUSH2 0x3FE JUMPI PUSH2 0x3FD PUSH2 0x28C JUMP JUMPDEST JUMPDEST PUSH2 0x40A DUP5 DUP3 DUP6 ADD PUSH2 0x39F JUMP JUMPDEST SWAP2 POP POP SWAP3 SWAP2 POP POP JUMP JUMPDEST PUSH0 DUP2 MLOAD SWAP1 POP SWAP2 SWAP1 POP JUMP JUMPDEST PUSH0 DUP3 DUP3 MSTORE PUSH1 0x20 DUP3 ADD SWAP1 POP SWAP3 SWAP2 POP POP JUMP JUMPDEST DUP3 DUP2 DUP4 MCOPY PUSH0 DUP4 DUP4 ADD MSTORE POP POP POP JUMP JUMPDEST PUSH0 PUSH2 0x445 DUP3 PUSH2 0x413 JUMP JUMPDEST PUSH2 0x44F DUP2 DUP6 PUSH2 0x41D JUMP JUMPDEST SWAP4 POP PUSH2 0x45F DUP2 DUP6 PUSH1 0x20 DUP7 ADD PUSH2 0x42D JUMP JUMPDEST PUSH2 0x468 DUP2 PUSH2 0x298 JUMP JUMPDEST DUP5 ADD SWAP2 POP POP SWAP3 SWAP2 POP POP JUMP JUMPDEST PUSH0 PUSH1 0x20 DUP3 ADD SWAP1 POP DUP2 DUP2 SUB PUSH0 DUP4 ADD MSTORE PUSH2 0x48B DUP2 DUP5 PUSH2 0x43B JUMP JUMPDEST SWAP1 POP SWAP3 SWAP2 POP POP JUMP JUMPDEST PUSH32 0x4E487B7100000000000000000000000000000000000000000000000000000000 PUSH0 MSTORE PUSH1 0x22 PUSH1 0x4 MSTORE PUSH1 0x24 PUSH0 REVERT JUMPDEST PUSH0 PUSH1 0x2 DUP3 DIV SWAP1 POP PUSH1 0x1 DUP3 AND DUP1 PUSH2 0x4D7 JUMPI PUSH1 0x7F DUP3 AND SWAP2 POP JUMPDEST PUSH1 0x20 DUP3 LT DUP2 SUB PUSH2 0x4EA JUMPI PUSH2 0x4E9 PUSH2 0x493 JUMP JUMPDEST JUMPDEST POP SWAP2 SWAP1 POP JUMP JUMPDEST PUSH0 DUP2 SWAP1 POP DUP2 PUSH0 MSTORE PUSH1 0x20 PUSH0 KECCAK256 SWAP1 POP SWAP2 SWAP1 POP JUMP JUMPDEST PUSH0 PUSH1 0x20 PUSH1 0x1F DUP4 ADD DIV SWAP1 POP SWAP2 SWAP1 POP JUMP JUMPDEST PUSH0 DUP3 DUP3 SHL SWAP1 POP SWAP3 SWAP2 POP POP JUMP JUMPDEST PUSH0 PUSH1 0x8 DUP4 MUL PUSH2 0x54C PUSH32 0xFFFFFFFFFFFFFFFFFFFFFFFFFFFFFFFFFFFFFFFFFFFFFFFFFFFFFFFFFFFFFFFF DUP3 PUSH2 0x511 JUMP JUMPDEST PUSH2 0x556 DUP7 DUP4 PUSH2 0x511 JUMP JUMPDEST SWAP6 POP DUP1 NOT DUP5 AND SWAP4 POP DUP1 DUP7 AND DUP5 OR SWAP3 POP POP POP SWAP4 SWAP3 POP POP POP JUMP JUMPDEST PUSH0 DUP2 SWAP1 POP SWAP2 SWAP1 POP JUMP JUMPDEST PUSH0 PUSH2 0x591 PUSH2 0x58C PUSH2 0x587 DUP5 PUSH2 0x1F6 JUMP JUMPDEST PUSH2 0x56E JUMP JUMPDEST PUSH2 0x1F6 JUMP JUMPDEST SWAP1 POP SWAP2 SWAP1 POP JUMP JUMPDEST PUSH0 DUP2 SWAP1 POP SWAP2 SWAP1 POP JUMP JUMPDEST PUSH2 0x5AA DUP4 PUSH2 0x577 JUMP JUMPDEST PUSH2 0x5BE PUSH2 0x5B6 DUP3 PUSH2 0x598 JUMP JUMPDEST DUP5 DUP5 SLOAD PUSH2 0x51D JUMP JUMPDEST DUP3 SSTORE POP POP POP POP JUMP JUMPDEST PUSH0 SWAP1 JUMP JUMPDEST PUSH2 0x5D2 PUSH2 0x5C6 JUMP JUMPDEST PUSH2 0x5DD DUP2 DUP5 DUP5 PUSH2 0x5A1 JUMP JUMPDEST POP POP POP JUMP JUMPDEST JUMPDEST DUP2 DUP2 LT ISZERO PUSH2 0x600 JUMPI PUSH2 0x5F5 PUSH0 DUP3 PUSH2 0x5CA JUMP JUMPDEST PUSH1 0x1 DUP2 ADD SWAP1 POP PUSH2 0x5E3 JUMP JUMPDEST POP POP JUMP JUMPDEST PUSH1 0x1F DUP3 GT ISZERO PUSH2 0x645 JUMPI PUSH2 0x616 DUP2 PUSH2 0x4F0 JUMP JUMPDEST PUSH2 0x61F DUP5 PUSH2 0x502 JUMP JUMPDEST DUP2 ADD PUSH1 0x20 DUP6 LT ISZERO PUSH2 0x62E JUMPI DUP2 SWAP1 POP JUMPDEST PUSH2 0x642 PUSH2 0x63A DUP6 PUSH2 0x502 JUMP JUMPDEST DUP4 ADD DUP3 PUSH2 0x5E2 JUMP JUMPDEST POP POP JUMPDEST POP POP POP JUMP JUMPDEST PUSH0 DUP3 DUP3 SHR SWAP1 POP SWAP3 SWAP2 POP POP JUMP JUMPDEST PUSH0 PUSH2 0x665 PUSH0 NOT DUP5 PUSH1 0x8 MUL PUSH2 0x64A JUMP JUMPDEST NOT DUP1 DUP4 AND SWAP2 POP POP SWAP3 SWAP2 POP POP JUMP JUMPDEST PUSH0 PUSH2 0x67D DUP4 DUP4 PUSH2 0x656 JUMP JUMPDEST SWAP2 POP DUP3 PUSH1 0x2 MUL DUP3 OR SWAP1 POP SWAP3 SWAP2 POP POP JUMP JUMPDEST PUSH2 0x696 DUP3 PUSH2 0x413 JUMP JUMPDEST PUSH8 0xFFFFFFFFFFFFFFFF DUP2 GT ISZERO PUSH2 0x6AF JUMPI PUSH2 0x6AE PUSH2 0x2A8 JUMP JUMPDEST JUMPDEST PUSH2 0x6B9 DUP3 SLOAD PUSH2 0x4C0 JUMP JUMPDEST PUSH2 0x6C4 DUP3 DUP3 DUP6 PUSH2 0x604 JUMP JUMPDEST PUSH0 PUSH1 0x20 SWAP1 POP PUSH1 0x1F DUP4 GT PUSH1 0x1 DUP2 EQ PUSH2 0x6F5 JUMPI PUSH0 DUP5 ISZERO PUSH2 0x6E3 JUMPI DUP3 DUP8 ADD MLOAD SWAP1 POP JUMPDEST PUSH2 0x6ED DUP6 DUP3 PUSH2 0x672 JUMP JUMPDEST DUP7 SSTORE POP PUSH2 0x754 JUMP JUMPDEST PUSH1 0x1F NOT DUP5 AND PUSH2 0x703 DUP7 PUSH2 0x4F0 JUMP JUMPDEST PUSH0 JUMPDEST DUP3 DUP2 LT ISZERO PUSH2 0x72A JUMPI DUP5 DUP10 ADD MLOAD DUP3 SSTORE PUSH1 0x1 DUP3 ADD SWAP2 POP PUSH1 0x20 DUP6 ADD SWAP5 POP PUSH1 0x20 DUP2 ADD SWAP1 POP PUSH2 0x705 JUMP JUMPDEST DUP7 DUP4 LT ISZERO PUSH2 0x747 JUMPI DUP5 DUP10 ADD MLOAD PUSH2 0x743 PUSH1 0x1F DUP10 AND DUP3 PUSH2 0x656 JUMP JUMPDEST DUP4 SSTORE POP JUMPDEST PUSH1 0x1 PUSH1 0x2 DUP9 MUL ADD DUP9 SSTORE POP POP POP JUMPDEST POP POP POP POP POP POP JUMP JUMPDEST PUSH32 0x4E487B7100000000000000000000000000000000000000000000000000000000 PUSH0 MSTORE PUSH1 0x11 PUSH1 0x4 MSTORE PUSH1 0x24 PUSH0 REVERT JUMPDEST PUSH0 PUSH2 0x793 DUP3 PUSH2 0x1F6 JUMP JUMPDEST SWAP2 POP PUSH32 0xFFFFFFFFFFFFFFFFFFFFFFFFFFFFFFFFFFFFFFFFFFFFFFFFFFFFFFFFFFFFFFFF DUP3 SUB PUSH2 0x7C5 JUMPI PUSH2 0x7C4 PUSH2 0x75C JUMP JUMPDEST JUMPDEST PUSH1 0x1 DUP3 ADD SWAP1 POP SWAP2 SWAP1 POP JUMP INVALID LOG2 PUSH5 0x6970667358 0x22 SLT KECCAK256 JUMPDEST PUSH16 0xF64C4569CBCAFE32204B761556C5A708 SUB SWAP14 0xD0 PUSH30 0xEBCF56ECD62B101B93A764736F6C634300081A0033000000000000000000 "
				},
				"gasEstimates": {
					"creation": {
						"codeDepositCost": "410800",
						"executionCost": "24712",
						"totalCost": "435512"
					},
					"external": {
						"counter()": "2403",
						"ownerAddress()": "2505",
						"testString()": "infinite",
						"updatingStringFunc(string)": "infinite"
					}
				},
				"methodIdentifiers": {
					"counter()": "61bc221a",
					"ownerAddress()": "8f84aa09",
					"testString()": "fb8f0f59",
					"updatingStringFunc(string)": "b7306a6d"
				}
			},
			"storageLayout": {
				"storage": [
					{
						"astId": 3,
						"contract": "contracts/BlockchainMessanger.sol:BlockchainMessanger",
						"label": "ownerAddress",
						"offset": 0,
						"slot": "0",
						"type": "t_address"
					},
					{
						"astId": 5,
						"contract": "contracts/BlockchainMessanger.sol:BlockchainMessanger",
						"label": "counter",
						"offset": 0,
						"slot": "1",
						"type": "t_uint256"
					},
					{
						"astId": 7,
						"contract": "contracts/BlockchainMessanger.sol:BlockchainMessanger",
						"label": "testString",
						"offset": 0,
						"slot": "2",
						"type": "t_string_storage"
					}
				],
				"types": {
					"t_address": {
						"encoding": "inplace",
						"label": "address",
						"numberOfBytes": "20"
					},
					"t_string_storage": {
						"encoding": "bytes",
						"label": "string",
						"numberOfBytes": "32"
					},
					"t_uint256": {
						"encoding": "inplace",
						"label": "uint256",
						"numberOfBytes": "32"
					}
				}
			},
			"userdoc": {
				"kind": "user",
				"methods": {},
				"version": 1
			}
		}
	}
}